{
  "contractName": "Token",
  "abi": [
    {
      "constant": true,
      "inputs": [],
      "name": "name",
      "outputs": [
        {
          "name": "",
          "type": "string"
        }
      ],
      "payable": false,
      "stateMutability": "view",
      "type": "function"
    },
    {
      "constant": true,
      "inputs": [],
      "name": "totalSupply",
      "outputs": [
        {
          "name": "",
          "type": "uint256"
        }
      ],
      "payable": false,
      "stateMutability": "view",
      "type": "function"
    },
    {
      "constant": true,
      "inputs": [
        {
          "name": "",
          "type": "address"
        }
      ],
      "name": "balanceOf",
      "outputs": [
        {
          "name": "",
          "type": "uint256"
        }
      ],
      "payable": false,
      "stateMutability": "view",
      "type": "function"
    },
    {
      "constant": true,
      "inputs": [],
      "name": "decimal",
      "outputs": [
        {
          "name": "",
          "type": "uint8"
        }
      ],
      "payable": false,
      "stateMutability": "view",
      "type": "function"
    },
    {
      "constant": true,
      "inputs": [],
      "name": "symbol",
      "outputs": [
        {
          "name": "",
          "type": "string"
        }
      ],
      "payable": false,
      "stateMutability": "view",
      "type": "function"
    },
    {
      "constant": false,
      "inputs": [
        {
          "name": "_to",
          "type": "address"
        },
        {
          "name": "_value",
          "type": "uint256"
        }
      ],
      "name": "transfer",
      "outputs": [],
      "payable": false,
      "stateMutability": "nonpayable",
      "type": "function"
    },
    {
      "inputs": [
        {
          "name": "initialSupply",
          "type": "uint256"
        },
        {
          "name": "tokenName",
          "type": "string"
        },
        {
          "name": "tokenSymbol",
          "type": "string"
        },
        {
          "name": "decimalUnits",
          "type": "uint8"
        }
      ],
      "payable": false,
      "stateMutability": "nonpayable",
      "type": "constructor"
    },
    {
      "anonymous": false,
      "inputs": [
        {
          "indexed": true,
          "name": "from",
          "type": "address"
        },
        {
          "indexed": true,
          "name": "to",
          "type": "address"
        },
        {
          "indexed": false,
          "name": "value",
          "type": "uint256"
        }
      ],
      "name": "Transfer",
      "type": "event"
    }
  ],
  "bytecode": "0x6060604052341561000f57600080fd5b60405161086238038061086283398101604052808051906020019091908051820191906020018051820191906020018051906020019091905050836000803373ffffffffffffffffffffffffffffffffffffffff1673ffffffffffffffffffffffffffffffffffffffff168152602001908152602001600020819055508360048190555080600360006101000a81548160ff021916908360ff16021790555081600290805190602001906100c49291906100e5565b5082600190805190602001906100db9291906100e5565b505050505061018a565b828054600181600116156101000203166002900490600052602060002090601f016020900481019282601f1061012657805160ff1916838001178555610154565b82800160010185558215610154579182015b82811115610153578251825591602001919060010190610138565b5b5090506101619190610165565b5090565b61018791905b8082111561018357600081600090555060010161016b565b5090565b90565b6106c9806101996000396000f300606060405260043610610078576000357c0100000000000000000000000000000000000000000000000000000000900463ffffffff16806306fdde031461007d57806318160ddd1461010b57806370a082311461013457806376809ce31461018157806395d89b41146101b0578063a9059cbb1461023e575b600080fd5b341561008857600080fd5b610090610280565b6040518080602001828103825283818151815260200191508051906020019080838360005b838110156100d05780820151818401526020810190506100b5565b50505050905090810190601f1680156100fd5780820380516001836020036101000a031916815260200191505b509250505060405180910390f35b341561011657600080fd5b61011e61031e565b6040518082815260200191505060405180910390f35b341561013f57600080fd5b61016b600480803573ffffffffffffffffffffffffffffffffffffffff16906020019091905050610324565b6040518082815260200191505060405180910390f35b341561018c57600080fd5b61019461033c565b604051808260ff1660ff16815260200191505060405180910390f35b34156101bb57600080fd5b6101c361034f565b6040518080602001828103825283818151815260200191508051906020019080838360005b838110156102035780820151818401526020810190506101e8565b50505050905090810190601f1680156102305780820380516001836020036101000a031916815260200191505b509250505060405180910390f35b341561024957600080fd5b61027e600480803573ffffffffffffffffffffffffffffffffffffffff169060200190919080359060200190919050506103ed565b005b60018054600181600116156101000203166002900480601f0160208091040260200160405190810160405280929190818152602001828054600181600116156101000203166002900480156103165780601f106102eb57610100808354040283529160200191610316565b820191906000526020600020905b8154815290600101906020018083116102f957829003601f168201915b505050505081565b60045481565b60006020528060005260406000206000915090505481565b600360009054906101000a900460ff1681565b60028054600181600116156101000203166002900480601f0160208091040260200160405190810160405280929190818152602001828054600181600116156101000203166002900480156103e55780601f106103ba576101008083540402835291602001916103e5565b820191906000526020600020905b8154815290600101906020018083116103c857829003601f168201915b505050505081565b806000803373ffffffffffffffffffffffffffffffffffffffff1673ffffffffffffffffffffffffffffffffffffffff168152602001908152602001600020541015151561043a57600080fd5b6000808373ffffffffffffffffffffffffffffffffffffffff1673ffffffffffffffffffffffffffffffffffffffff168152602001908152602001600020546104ca826000808673ffffffffffffffffffffffffffffffffffffffff1673ffffffffffffffffffffffffffffffffffffffff1681526020019081526020016000205461066690919063ffffffff16565b101515156104d757600080fd5b610528816000803373ffffffffffffffffffffffffffffffffffffffff1673ffffffffffffffffffffffffffffffffffffffff1681526020019081526020016000205461068490919063ffffffff16565b6000803373ffffffffffffffffffffffffffffffffffffffff1673ffffffffffffffffffffffffffffffffffffffff168152602001908152602001600020819055506105bb816000808573ffffffffffffffffffffffffffffffffffffffff1673ffffffffffffffffffffffffffffffffffffffff1681526020019081526020016000205461066690919063ffffffff16565b6000808473ffffffffffffffffffffffffffffffffffffffff1673ffffffffffffffffffffffffffffffffffffffff168152602001908152602001600020819055508173ffffffffffffffffffffffffffffffffffffffff163373ffffffffffffffffffffffffffffffffffffffff167fddf252ad1be2c89b69c2b068fc378daa952ba7f163c4a11628f55a4df523b3ef836040518082815260200191505060405180910390a35050565b600080828401905083811015151561067a57fe5b8091505092915050565b600082821115151561069257fe5b8183039050929150505600a165627a7a723058202089e08a04008a77bd0d79b02c6a2a3ccfc52614aca6b44273ebd6798f7e97120029",
  "source": "pragma solidity 0.4.18;\nimport './SafeMath.sol';\n\ncontract Token {\n\tusing SafeMath for uint256;\n\n\t// Contract balance\n\tmapping (address => uint256) public balanceOf;\n\t// Token name\n\tstring public name;\n\t// Token symbol\n\tstring public symbol;\n\t// Decimals to use\n\tuint8 public decimal; \n\t// Total initial suppy\n\tuint256 public totalSupply;\n\t// Transfer function interface\n\tevent Transfer(address indexed from, address indexed to, uint256 value);\n\n\t// Token creation function\n\tfunction Token(uint256 initialSupply, string tokenName, string tokenSymbol, uint8 decimalUnits){\n\t\t// set the balance of the creator to the initial supply\n\t\tbalanceOf[msg.sender] = initialSupply;\n\t\ttotalSupply = initialSupply;\n\t\tdecimal = decimalUnits;\n\t\tsymbol = tokenSymbol;\n\t\tname = tokenName;\n\t}\n\n\t// Transfer function used to send tokens to an address\n\tfunction transfer(address _to, uint256 _value){\n\t\t// Check if the creator actually has the required balance\n\t\trequire(balanceOf[msg.sender] >= _value);\n\t\t// Check if the amount sent will not overflow\n\t\trequire(balanceOf[_to].add(_value) >= balanceOf[_to]);\n\t\t// Substract tokens from the creator\n\t\tbalanceOf[msg.sender] = balanceOf[msg.sender].sub(_value);\n\t\t// Add tokens to the transfer address\n\t\tbalanceOf[_to] = balanceOf[_to].add(_value);\n\t\t// Execute the transfer\n\t\tTransfer(msg.sender, _to, _value);\n\t}\n}",
  "sourcePath": "/Users/admin/Projects/TrueN2NCollective/MakerDAO/node-maker/truffle/contracts/Token.sol",
  "compiler": {
    "name": "solc",
    "version": "0.4.18+commit.9cf6e910.Emscripten.clang"
  },
  "schemaVersion": "1.0.1",
  "updatedAt": "2018-03-28T03:35:29.126Z"
}