{
  "contractName": "TxManager",
  "abi": [
    {
      "constant": true,
      "inputs": [],
      "name": "tub",
      "outputs": [
        {
          "name": "",
          "type": "address"
        }
      ],
      "payable": false,
      "stateMutability": "view",
      "type": "function"
    },
    {
      "constant": true,
      "inputs": [],
      "name": "weth",
      "outputs": [
        {
          "name": "",
          "type": "address"
        }
      ],
      "payable": false,
      "stateMutability": "view",
      "type": "function"
    },
    {
      "constant": false,
      "inputs": [
        {
          "name": "allowance",
          "type": "uint256"
        },
        {
          "name": "dai",
          "type": "uint256"
        },
        {
          "name": "tubAddress",
          "type": "address"
        }
      ],
      "name": "openCdp",
      "outputs": [
        {
          "name": "",
          "type": "bool"
        }
      ],
      "payable": false,
      "stateMutability": "nonpayable",
      "type": "function"
    },
    {
      "constant": true,
      "inputs": [],
      "name": "peth",
      "outputs": [
        {
          "name": "",
          "type": "address"
        }
      ],
      "payable": false,
      "stateMutability": "view",
      "type": "function"
    },
    {
      "constant": true,
      "inputs": [],
      "name": "_wethAddress",
      "outputs": [
        {
          "name": "",
          "type": "address"
        }
      ],
      "payable": false,
      "stateMutability": "view",
      "type": "function"
    },
    {
      "constant": true,
      "inputs": [],
      "name": "_pethAddress",
      "outputs": [
        {
          "name": "",
          "type": "address"
        }
      ],
      "payable": false,
      "stateMutability": "view",
      "type": "function"
    },
    {
      "constant": true,
      "inputs": [],
      "name": "_tubAddress",
      "outputs": [
        {
          "name": "",
          "type": "address"
        }
      ],
      "payable": false,
      "stateMutability": "view",
      "type": "function"
    },
    {
      "constant": true,
      "inputs": [],
      "name": "dai",
      "outputs": [
        {
          "name": "",
          "type": "address"
        }
      ],
      "payable": false,
      "stateMutability": "view",
      "type": "function"
    },
    {
      "inputs": [
        {
          "name": "tubAddress",
          "type": "address"
        },
        {
          "name": "wethAddress",
          "type": "address"
        },
        {
          "name": "pethAddress",
          "type": "address"
        },
        {
          "name": "daiAddress",
          "type": "address"
        }
      ],
      "payable": false,
      "stateMutability": "nonpayable",
      "type": "constructor"
    },
    {
      "anonymous": false,
      "inputs": [
        {
          "indexed": false,
          "name": "log",
          "type": "address"
        }
      ],
      "name": "LogTest",
      "type": "event"
    },
    {
      "anonymous": false,
      "inputs": [
        {
          "indexed": false,
          "name": "log",
          "type": "uint256"
        }
      ],
      "name": "LogTestNum",
      "type": "event"
    }
  ],
  "bytecode": "0x6060604052341561000f57600080fd5b6040516080806109e483398101604052808051906020019091908051906020019091908051906020019091908051906020019091905050836000806101000a81548173ffffffffffffffffffffffffffffffffffffffff021916908373ffffffffffffffffffffffffffffffffffffffff16021790555082600160006101000a81548173ffffffffffffffffffffffffffffffffffffffff021916908373ffffffffffffffffffffffffffffffffffffffff16021790555081600260006101000a81548173ffffffffffffffffffffffffffffffffffffffff021916908373ffffffffffffffffffffffffffffffffffffffff16021790555080600360006101000a81548173ffffffffffffffffffffffffffffffffffffffff021916908373ffffffffffffffffffffffffffffffffffffffff160217905550505050506108888061015c6000396000f30060606040526004361061008e576000357c0100000000000000000000000000000000000000000000000000000000900463ffffffff16806334e70cc2146100935780633fc8cef3146100e857806370d346721461013d5780637d211c75146101a057806390aafc01146101f5578063eaf6fd151461024a578063f1913b7b1461029f578063f4b9fa75146102f4575b600080fd5b341561009e57600080fd5b6100a6610349565b604051808273ffffffffffffffffffffffffffffffffffffffff1673ffffffffffffffffffffffffffffffffffffffff16815260200191505060405180910390f35b34156100f357600080fd5b6100fb61036e565b604051808273ffffffffffffffffffffffffffffffffffffffff1673ffffffffffffffffffffffffffffffffffffffff16815260200191505060405180910390f35b341561014857600080fd5b610186600480803590602001909190803590602001909190803573ffffffffffffffffffffffffffffffffffffffff16906020019091905050610394565b604051808215151515815260200191505060405180910390f35b34156101ab57600080fd5b6101b361047c565b604051808273ffffffffffffffffffffffffffffffffffffffff1673ffffffffffffffffffffffffffffffffffffffff16815260200191505060405180910390f35b341561020057600080fd5b6102086104a2565b604051808273ffffffffffffffffffffffffffffffffffffffff1673ffffffffffffffffffffffffffffffffffffffff16815260200191505060405180910390f35b341561025557600080fd5b61025d6104c8565b604051808273ffffffffffffffffffffffffffffffffffffffff1673ffffffffffffffffffffffffffffffffffffffff16815260200191505060405180910390f35b34156102aa57600080fd5b6102b26104ee565b604051808273ffffffffffffffffffffffffffffffffffffffff1673ffffffffffffffffffffffffffffffffffffffff16815260200191505060405180910390f35b34156102ff57600080fd5b610307610514565b604051808273ffffffffffffffffffffffffffffffffffffffff1673ffffffffffffffffffffffffffffffffffffffff16815260200191505060405180910390f35b6000809054906101000a900473ffffffffffffffffffffffffffffffffffffffff1681565b600160009054906101000a900473ffffffffffffffffffffffffffffffffffffffff1681565b60007fd3bb8005b95be1572f65dd8babda21208758eb4a2c0c0915810756655a02af6c846040518082815260200191505060405180910390a16103d7848361053a565b600160009054906101000a900473ffffffffffffffffffffffffffffffffffffffff1673ffffffffffffffffffffffffffffffffffffffff1663d0e30db0856040518263ffffffff167c01000000000000000000000000000000000000000000000000000000000281526004016000604051808303818588803b151561045c57600080fd5b6125ee5a03f1151561046d57600080fd5b50505050600190509392505050565b600260009054906101000a900473ffffffffffffffffffffffffffffffffffffffff1681565b600560009054906101000a900473ffffffffffffffffffffffffffffffffffffffff1681565b600660009054906101000a900473ffffffffffffffffffffffffffffffffffffffff1681565b600460009054906101000a900473ffffffffffffffffffffffffffffffffffffffff1681565b600360009054906101000a900473ffffffffffffffffffffffffffffffffffffffff1681565b7fd006e942fead40af3b8cfee5f041b69d1b14565ce6e18728850a676969bd896e81604051808273ffffffffffffffffffffffffffffffffffffffff1673ffffffffffffffffffffffffffffffffffffffff16815260200191505060405180910390a1600160009054906101000a900473ffffffffffffffffffffffffffffffffffffffff1673ffffffffffffffffffffffffffffffffffffffff1663095ea7b382846000604051602001526040518363ffffffff167c0100000000000000000000000000000000000000000000000000000000028152600401808373ffffffffffffffffffffffffffffffffffffffff1673ffffffffffffffffffffffffffffffffffffffff16815260200182815260200192505050602060405180830381600087803b151561066a57600080fd5b6102c65a03f1151561067b57600080fd5b5050506040518051905050600260009054906101000a900473ffffffffffffffffffffffffffffffffffffffff1673ffffffffffffffffffffffffffffffffffffffff1663095ea7b382846000604051602001526040518363ffffffff167c0100000000000000000000000000000000000000000000000000000000028152600401808373ffffffffffffffffffffffffffffffffffffffff1673ffffffffffffffffffffffffffffffffffffffff16815260200182815260200192505050602060405180830381600087803b151561075357600080fd5b6102c65a03f1151561076457600080fd5b5050506040518051905050600360009054906101000a900473ffffffffffffffffffffffffffffffffffffffff1673ffffffffffffffffffffffffffffffffffffffff1663095ea7b382846000604051602001526040518363ffffffff167c0100000000000000000000000000000000000000000000000000000000028152600401808373ffffffffffffffffffffffffffffffffffffffff1673ffffffffffffffffffffffffffffffffffffffff16815260200182815260200192505050602060405180830381600087803b151561083c57600080fd5b6102c65a03f1151561084d57600080fd5b505050604051805190505050505600a165627a7a72305820af88494dd273cee50dd92e07fd6ee7ffff9b8e00828c0b59a51186f63d67af000029",
  "source": "/**\n * The TxManager contract does this and that...\n */\npragma solidity ^0.4.18;\n\nimport { WETH9_ as Weth } from \"./Weth.sol\";\nimport { DSToken as Peth } from \"./Peth.sol\";\nimport { SaiTub as Tub } from \"./SaiTub.sol\";\nimport { DSToken as Dai } from \"./Dai.sol\";\n \ncontract TxManager {\n\n\tTub public tub;\n\tWeth public weth;\n\tPeth public peth;\n\tDai public dai;\n\n\taddress public _tubAddress;\n\taddress public _wethAddress;\n\taddress public _pethAddress;\n\n\tevent LogTest(address log);\n\tevent LogTestNum(uint log);\n\n\tfunction TxManager (address tubAddress, address wethAddress, address pethAddress, address daiAddress) {\n\n\t\ttub = Tub(tubAddress);\n\t\tweth = Weth(wethAddress);\n\t\tpeth = Peth(pethAddress);\n\t\tdai = Dai(daiAddress);\n\n\t}\n\n\t// function approve() payable {\n\n\t// }\n\n\t// function transferFrom() {\n\n\t// }\n\n\tfunction openCdp(uint allowance, uint dai, address tubAddress) returns (bool) {\n\t\tLogTestNum(allowance);\n\n\t\t_approveAllowance(allowance, tubAddress);\n\n\t\t// Convert ETH to WETH\n\t\tweth.deposit.value(allowance)();\n\n\t\t// // Join WETH to PETH\n\t\t// tub.join(allowance);\n\n\t\t// // Open CDP, returns cup ID\n\t\t// bytes32 cupId = tub.open();\n\n\t\t// // Lock Peth in the Cup\n\t\t// tub.lock(cupId, allowance);\n\n\t\t// // Draw Dai from the cup\n\t\t// tub.draw(cupId, dai);\n\n\t\treturn true;\n\t}\n\n\tfunction _approveAllowance(uint allowance, address tubAddress) private {\n\n\t\tLogTest(tubAddress); \n\t\t\n\t\tweth.approve(tubAddress, allowance);\n\t\tpeth.approve(tubAddress, allowance);\n\t\tdai.approve(tubAddress, allowance);\n\t\t// mkr.approve(tub, allowance);\n\t}\n}\n",
  "sourcePath": "/Users/admin/Projects/TrueN2NCollective/MakerDAO/node-maker/truffle/contracts/TxManager.sol",
  "compiler": {
    "name": "solc",
    "version": "0.4.18+commit.9cf6e910.Emscripten.clang"
  },
  "schemaVersion": "1.0.1",
  "updatedAt": "2018-03-28T04:24:32.842Z"
}